{
  "contractName": "ProductValidator",
  "abi": [
    {
      "constant": true,
      "inputs": [
        {
          "name": "",
          "type": "uint256"
        }
      ],
      "name": "entities",
      "outputs": [
        {
          "name": "entityType",
          "type": "uint8"
        },
        {
          "name": "name",
          "type": "string"
        },
        {
          "name": "IDEntity",
          "type": "string"
        },
        {
          "name": "IDType",
          "type": "string"
        },
        {
          "name": "owner",
          "type": "address"
        },
        {
          "name": "index",
          "type": "uint256"
        }
      ],
      "payable": false,
      "stateMutability": "view",
      "type": "function"
    },
    {
      "inputs": [
        {
          "name": "_productOwnerName",
          "type": "string"
        }
      ],
      "payable": false,
      "stateMutability": "nonpayable",
      "type": "constructor"
    },
    {
      "constant": false,
      "inputs": [
        {
          "name": "_name",
          "type": "string"
        },
        {
          "name": "_ID",
          "type": "string"
        },
        {
          "name": "_IDType",
          "type": "string"
        }
      ],
      "name": "createEntity",
      "outputs": [],
      "payable": false,
      "stateMutability": "nonpayable",
      "type": "function"
    },
    {
      "constant": false,
      "inputs": [
        {
          "name": "_oem",
          "type": "address"
        },
        {
          "name": "_oemEntityID",
          "type": "string"
        }
      ],
      "name": "authorizeOEM",
      "outputs": [],
      "payable": false,
      "stateMutability": "nonpayable",
      "type": "function"
    },
    {
      "constant": false,
      "inputs": [
        {
          "name": "_distID",
          "type": "string"
        }
      ],
      "name": "authorizeDistributor",
      "outputs": [],
      "payable": false,
      "stateMutability": "nonpayable",
      "type": "function"
    },
    {
      "constant": false,
      "inputs": [
        {
          "name": "_retailID",
          "type": "string"
        }
      ],
      "name": "authorizeRetailer",
      "outputs": [],
      "payable": false,
      "stateMutability": "nonpayable",
      "type": "function"
    },
    {
      "constant": false,
      "inputs": [
        {
          "name": "_IDProduct",
          "type": "string"
        },
        {
          "name": "_originHash",
          "type": "bytes32"
        }
      ],
      "name": "createTag",
      "outputs": [],
      "payable": false,
      "stateMutability": "nonpayable",
      "type": "function"
    },
    {
      "constant": true,
      "inputs": [
        {
          "name": "_IDProduct",
          "type": "string"
        }
      ],
      "name": "getOwnershipInfo",
      "outputs": [
        {
          "components": [
            {
              "name": "entityType",
              "type": "uint8"
            },
            {
              "name": "name",
              "type": "string"
            },
            {
              "name": "IDEntity",
              "type": "string"
            },
            {
              "name": "IDType",
              "type": "string"
            },
            {
              "name": "owner",
              "type": "address"
            },
            {
              "name": "index",
              "type": "uint256"
            }
          ],
          "name": "",
          "type": "tuple"
        }
      ],
      "payable": false,
      "stateMutability": "view",
      "type": "function"
    },
    {
      "constant": true,
      "inputs": [
        {
          "name": "_IDEntity",
          "type": "string"
        }
      ],
      "name": "getEntity",
      "outputs": [
        {
          "components": [
            {
              "name": "entityType",
              "type": "uint8"
            },
            {
              "name": "name",
              "type": "string"
            },
            {
              "name": "IDEntity",
              "type": "string"
            },
            {
              "name": "IDType",
              "type": "string"
            },
            {
              "name": "owner",
              "type": "address"
            },
            {
              "name": "index",
              "type": "uint256"
            }
          ],
          "name": "",
          "type": "tuple"
        }
      ],
      "payable": false,
      "stateMutability": "view",
      "type": "function"
    },
    {
      "constant": true,
      "inputs": [
        {
          "name": "_add",
          "type": "address"
        }
      ],
      "name": "getEntityByAddress",
      "outputs": [
        {
          "components": [
            {
              "name": "entityType",
              "type": "uint8"
            },
            {
              "name": "name",
              "type": "string"
            },
            {
              "name": "IDEntity",
              "type": "string"
            },
            {
              "name": "IDType",
              "type": "string"
            },
            {
              "name": "owner",
              "type": "address"
            },
            {
              "name": "index",
              "type": "uint256"
            }
          ],
          "name": "",
          "type": "tuple"
        }
      ],
      "payable": false,
      "stateMutability": "view",
      "type": "function"
    },
    {
      "constant": false,
      "inputs": [
        {
          "name": "_IDProduct",
          "type": "string"
        },
        {
          "name": "_IDNewEntity",
          "type": "string"
        },
        {
          "name": "_newOwner",
          "type": "address"
        }
      ],
      "name": "transferOwnership",
      "outputs": [],
      "payable": false,
      "stateMutability": "nonpayable",
      "type": "function"
    }
  ],
  "bytecode": "0x60806040523480156200001157600080fd5b506040516200384a3803806200384a8339810180604052620000379190810190620007b5565b33600660006101000a81548173ffffffffffffffffffffffffffffffffffffffff021916908373ffffffffffffffffffffffffffffffffffffffff16021790555062000082620005c4565b6040518060400160405280600181526020017f31000000000000000000000000000000000000000000000000000000000000008152508160400181905250818160200181905250604051806020016040528060008152508160600181905250600181600001906004811115620000f457fe5b908160048111156200010257fe5b8152505033816080019073ffffffffffffffffffffffffffffffffffffffff16908173ffffffffffffffffffffffffffffffffffffffff16815250506000805490508160a00181815250506000819080600181540180825580915050906001820390600052602060002090600602016000909192909190915060008201518160000160006101000a81548160ff02191690836004811115620001a057fe5b02179055506020820151816001019080519060200190620001c39291906200061c565b506040820151816002019080519060200190620001e29291906200061c565b506060820151816003019080519060200190620002019291906200061c565b5060808201518160040160006101000a81548173ffffffffffffffffffffffffffffffffffffffff021916908373ffffffffffffffffffffffffffffffffffffffff16021790555060a0820151816005015550505080600182604001516040516200026d919062000831565b908152602001604051809103902060008201518160000160006101000a81548160ff02191690836004811115620002a057fe5b02179055506020820151816001019080519060200190620002c39291906200061c565b506040820151816002019080519060200190620002e29291906200061c565b506060820151816003019080519060200190620003019291906200061c565b5060808201518160040160006101000a81548173ffffffffffffffffffffffffffffffffffffffff021916908373ffffffffffffffffffffffffffffffffffffffff16021790555060a082015181600501559050508060026000836080015173ffffffffffffffffffffffffffffffffffffffff1673ffffffffffffffffffffffffffffffffffffffff16815260200190815260200160002060008201518160000160006101000a81548160ff02191690836004811115620003bf57fe5b02179055506020820151816001019080519060200190620003e29291906200061c565b506040820151816002019080519060200190620004019291906200061c565b506060820151816003019080519060200190620004209291906200061c565b5060808201518160040160006101000a81548173ffffffffffffffffffffffffffffffffffffffff021916908373ffffffffffffffffffffffffffffffffffffffff16021790555060a08201518160050155905050600080815481106200048357fe5b906000526020600020906006020160076000820160009054906101000a900460ff168160000160006101000a81548160ff02191690836004811115620004c557fe5b021790555060018201816001019080546001816001161561010002031660029004620004f3929190620006a3565b50600282018160020190805460018160011615610100020316600290046200051d929190620006a3565b506003820181600301908054600181600116156101000203166002900462000547929190620006a3565b506004820160009054906101000a900473ffffffffffffffffffffffffffffffffffffffff168160040160006101000a81548173ffffffffffffffffffffffffffffffffffffffff021916908373ffffffffffffffffffffffffffffffffffffffff160217905550600582015481600501559050505050620008f1565b6040518060c0016040528060006004811115620005dd57fe5b8152602001606081526020016060815260200160608152602001600073ffffffffffffffffffffffffffffffffffffffff168152602001600081525090565b828054600181600116156101000203166002900490600052602060002090601f016020900481019282601f106200065f57805160ff191683800117855562000690565b8280016001018555821562000690579182015b828111156200068f57825182559160200191906001019062000672565b5b5090506200069f919062000731565b5090565b828054600181600116156101000203166002900490600052602060002090601f016020900481019282601f10620006de57805485556200071e565b828001600101855582156200071e57600052602060002091601f016020900482015b828111156200071d57825482559160010191906001019062000700565b5b5090506200072d919062000731565b5090565b6200075691905b808211156200075257600081600090555060010162000738565b5090565b90565b600082601f8301126200076b57600080fd5b8151620007826200077c8262000878565b6200084a565b915080825260208301602083018583830111156200079f57600080fd5b620007ac838284620008bb565b50505092915050565b600060208284031215620007c857600080fd5b600082015167ffffffffffffffff811115620007e357600080fd5b620007f18482850162000759565b91505092915050565b60006200080782620008a5565b620008138185620008b0565b935062000825818560208601620008bb565b80840191505092915050565b60006200083f8284620007fa565b915081905092915050565b6000604051905081810181811067ffffffffffffffff821117156200086e57600080fd5b8060405250919050565b600067ffffffffffffffff8211156200089057600080fd5b601f19601f8301169050602081019050919050565b600081519050919050565b600081905092915050565b60005b83811015620008db578082015181840152602081019050620008be565b83811115620008eb576000848401525b50505050565b612f4980620009016000396000f3fe608060405234801561001057600080fd5b506004361061009e5760003560e01c80636e39d8be116100665780636e39d8be1461015c5780639769de5d14610178578063b356003914610194578063eb2e7e2e146101c4578063fcd14101146101f45761009e565b8063070c412b146100a3578063122862f9146100d35780635f974af6146100ef5780636331883b1461010b5780636d21255014610140575b600080fd5b6100bd60048036036100b8919081019061268c565b610210565b6040516100ca9190612d41565b60405180910390f35b6100ed60048036036100e89190810190612721565b6104bb565b005b6101096004803603610104919081019061268c565b610a89565b005b61012560048036036101209190810190612837565b610d37565b60405161013796959493929190612c2b565b60405180910390f35b61015a600480360361015591908101906127a0565b610f75565b005b6101766004803603610171919081019061268c565b611315565b005b610192600480360361018d91908101906126cd565b6115ab565b005b6101ae60048036036101a9919081019061260f565b611924565b6040516101bb9190612d41565b60405180910390f35b6101de60048036036101d9919081019061268c565b611bf0565b6040516101eb9190612d41565b60405180910390f35b61020e60048036036102099190810190612638565b611e9b565b005b6102186123bf565b6001826040516102289190612c14565b90815260200160405180910390206040518060c00160405290816000820160009054906101000a900460ff16600481111561025f57fe5b600481111561026a57fe5b8152602001600182018054600181600116156101000203166002900480601f0160208091040260200160405190810160405280929190818152602001828054600181600116156101000203166002900480156103075780601f106102dc57610100808354040283529160200191610307565b820191906000526020600020905b8154815290600101906020018083116102ea57829003601f168201915b50505050508152602001600282018054600181600116156101000203166002900480601f0160208091040260200160405190810160405280929190818152602001828054600181600116156101000203166002900480156103a95780601f1061037e576101008083540402835291602001916103a9565b820191906000526020600020905b81548152906001019060200180831161038c57829003601f168201915b50505050508152602001600382018054600181600116156101000203166002900480601f01602080910402602001604051908101604052809291908181526020018280546001816001161561010002031660029004801561044b5780601f106104205761010080835404028352916020019161044b565b820191906000526020600020905b81548152906001019060200180831161042e57829003601f168201915b505050505081526020016004820160009054906101000a900473ffffffffffffffffffffffffffffffffffffffff1673ffffffffffffffffffffffffffffffffffffffff1673ffffffffffffffffffffffffffffffffffffffff1681526020016005820154815250509050919050565b3373ffffffffffffffffffffffffffffffffffffffff166005846040516104e29190612c14565b908152602001604051809103902060040160009054906101000a900473ffffffffffffffffffffffffffffffffffffffff1673ffffffffffffffffffffffffffffffffffffffff1614801561070857506001600481111561053f57fe5b60058460405161054f9190612c14565b908152602001604051809103902060000160009054906101000a900460ff16600481111561057957fe5b1480156105ca57506002600481111561058e57fe5b60018360405161059e9190612c14565b908152602001604051809103902060000160009054906101000a900460ff1660048111156105c857fe5b145b806106695750600260048111156105dd57fe5b6005846040516105ed9190612c14565b908152602001604051809103902060000160009054906101000a900460ff16600481111561061757fe5b14801561066857506003600481111561062c57fe5b60018360405161063c9190612c14565b908152602001604051809103902060000160009054906101000a900460ff16600481111561066657fe5b145b5b8061070757506003600481111561067c57fe5b60058460405161068c9190612c14565b908152602001604051809103902060000160009054906101000a900460ff1660048111156106b657fe5b14801561070657506004808111156106ca57fe5b6001836040516106da9190612c14565b908152602001604051809103902060000160009054906101000a900460ff16600481111561070457fe5b145b5b5b610747576040517f08c379a000000000000000000000000000000000000000000000000000000000815260040161073e90612d21565b60405180910390fd5b806005846040516107589190612c14565b908152602001604051809103902060040160006101000a81548173ffffffffffffffffffffffffffffffffffffffff021916908373ffffffffffffffffffffffffffffffffffffffff1602179055506001826040516107b79190612c14565b9081526020016040518091039020600260008373ffffffffffffffffffffffffffffffffffffffff1673ffffffffffffffffffffffffffffffffffffffff1681526020019081526020016000206000820160009054906101000a900460ff168160000160006101000a81548160ff0219169083600481111561083557fe5b021790555060018201816001019080546001816001161561010002031660029004610861929190612416565b5060028201816002019080546001816001161561010002031660029004610889929190612416565b50600382018160030190805460018160011615610100020316600290046108b1929190612416565b506004820160009054906101000a900473ffffffffffffffffffffffffffffffffffffffff168160040160006101000a81548173ffffffffffffffffffffffffffffffffffffffff021916908373ffffffffffffffffffffffffffffffffffffffff160217905550600582015481600501559050506001826040516109369190612c14565b90815260200160405180910390206005846040516109549190612c14565b90815260200160405180910390206000820160009054906101000a900460ff168160000160006101000a81548160ff0219169083600481111561099357fe5b0217905550600182018160010190805460018160011615610100020316600290046109bf929190612416565b50600282018160020190805460018160011615610100020316600290046109e7929190612416565b5060038201816003019080546001816001161561010002031660029004610a0f929190612416565b506004820160009054906101000a900473ffffffffffffffffffffffffffffffffffffffff168160040160006101000a81548173ffffffffffffffffffffffffffffffffffffffff021916908373ffffffffffffffffffffffffffffffffffffffff16021790555060058201548160050155905050505050565b60026004811115610a9657fe5b600260003373ffffffffffffffffffffffffffffffffffffffff1673ffffffffffffffffffffffffffffffffffffffff16815260200190815260200160002060000160009054906101000a900460ff166004811115610af157fe5b14610b31576040517f08c379a0000000000000000000000000000000000000000000000000000000008152600401610b2890612cc1565b60405180910390fd5b6003600182604051610b439190612c14565b908152602001604051809103902060000160006101000a81548160ff02191690836004811115610b6f57fe5b0217905550600181604051610b849190612c14565b908152602001604051809103902060026000600184604051610ba69190612c14565b908152602001604051809103902060040160009054906101000a900473ffffffffffffffffffffffffffffffffffffffff1673ffffffffffffffffffffffffffffffffffffffff1673ffffffffffffffffffffffffffffffffffffffff1681526020019081526020016000206000820160009054906101000a900460ff168160000160006101000a81548160ff02191690836004811115610c4357fe5b021790555060018201816001019080546001816001161561010002031660029004610c6f929190612416565b5060028201816002019080546001816001161561010002031660029004610c97929190612416565b5060038201816003019080546001816001161561010002031660029004610cbf929190612416565b506004820160009054906101000a900473ffffffffffffffffffffffffffffffffffffffff168160040160006101000a81548173ffffffffffffffffffffffffffffffffffffffff021916908373ffffffffffffffffffffffffffffffffffffffff1602179055506005820154816005015590505050565b60008181548110610d4457fe5b90600052602060002090600602016000915090508060000160009054906101000a900460ff1690806001018054600181600116156101000203166002900480601f016020809104026020016040519081016040528092919081815260200182805460018160011615610100020316600290048015610e035780601f10610dd857610100808354040283529160200191610e03565b820191906000526020600020905b815481529060010190602001808311610de657829003601f168201915b505050505090806002018054600181600116156101000203166002900480601f016020809104026020016040519081016040528092919081815260200182805460018160011615610100020316600290048015610ea15780601f10610e7657610100808354040283529160200191610ea1565b820191906000526020600020905b815481529060010190602001808311610e8457829003601f168201915b505050505090806003018054600181600116156101000203166002900480601f016020809104026020016040519081016040528092919081815260200182805460018160011615610100020316600290048015610f3f5780601f10610f1457610100808354040283529160200191610f3f565b820191906000526020600020905b815481529060010190602001808311610f2257829003601f168201915b5050505050908060040160009054906101000a900473ffffffffffffffffffffffffffffffffffffffff16908060050154905086565b610f7d6123bf565b828160400181905250838160200181905250818160600181905250600481600001906004811115610faa57fe5b90816004811115610fb757fe5b8152505033816080019073ffffffffffffffffffffffffffffffffffffffff16908173ffffffffffffffffffffffffffffffffffffffff16815250506000805490508160a00181815250506000819080600181540180825580915050906001820390600052602060002090600602016000909192909190915060008201518160000160006101000a81548160ff0219169083600481111561105457fe5b0217905550602082015181600101908051906020019061107592919061249d565b50604082015181600201908051906020019061109292919061249d565b5060608201518160030190805190602001906110af92919061249d565b5060808201518160040160006101000a81548173ffffffffffffffffffffffffffffffffffffffff021916908373ffffffffffffffffffffffffffffffffffffffff16021790555060a08201518160050155505050806001846040516111159190612c14565b908152602001604051809103902060008201518160000160006101000a81548160ff0219169083600481111561114757fe5b0217905550602082015181600101908051906020019061116892919061249d565b50604082015181600201908051906020019061118592919061249d565b5060608201518160030190805190602001906111a292919061249d565b5060808201518160040160006101000a81548173ffffffffffffffffffffffffffffffffffffffff021916908373ffffffffffffffffffffffffffffffffffffffff16021790555060a082015181600501559050508060026000836080015173ffffffffffffffffffffffffffffffffffffffff1673ffffffffffffffffffffffffffffffffffffffff16815260200190815260200160002060008201518160000160006101000a81548160ff0219169083600481111561125f57fe5b0217905550602082015181600101908051906020019061128092919061249d565b50604082015181600201908051906020019061129d92919061249d565b5060608201518160030190805190602001906112ba92919061249d565b5060808201518160040160006101000a81548173ffffffffffffffffffffffffffffffffffffffff021916908373ffffffffffffffffffffffffffffffffffffffff16021790555060a0820151816005015590505050505050565b600660009054906101000a900473ffffffffffffffffffffffffffffffffffffffff1673ffffffffffffffffffffffffffffffffffffffff163373ffffffffffffffffffffffffffffffffffffffff16146113a5576040517f08c379a000000000000000000000000000000000000000000000000000000000815260040161139c90612ca1565b60405180910390fd5b60026001826040516113b79190612c14565b908152602001604051809103902060000160006101000a81548160ff021916908360048111156113e357fe5b02179055506001816040516113f89190612c14565b90815260200160405180910390206002600060018460405161141a9190612c14565b908152602001604051809103902060040160009054906101000a900473ffffffffffffffffffffffffffffffffffffffff1673ffffffffffffffffffffffffffffffffffffffff1673ffffffffffffffffffffffffffffffffffffffff1681526020019081526020016000206000820160009054906101000a900460ff168160000160006101000a81548160ff021916908360048111156114b757fe5b0217905550600182018160010190805460018160011615610100020316600290046114e3929190612416565b506002820181600201908054600181600116156101000203166002900461150b929190612416565b5060038201816003019080546001816001161561010002031660029004611533929190612416565b506004820160009054906101000a900473ffffffffffffffffffffffffffffffffffffffff168160040160006101000a81548173ffffffffffffffffffffffffffffffffffffffff021916908373ffffffffffffffffffffffffffffffffffffffff1602179055506005820154816005015590505050565b600060048111156115b857fe5b600d60003373ffffffffffffffffffffffffffffffffffffffff1673ffffffffffffffffffffffffffffffffffffffff16815260200190815260200160002060000160009054906101000a900460ff16600481111561161357fe5b14611653576040517f08c379a000000000000000000000000000000000000000000000000000000000815260040161164a90612ce1565b60405180910390fd5b61165b61251d565b8281600001819052508181602001818152505033816040019073ffffffffffffffffffffffffffffffffffffffff16908173ffffffffffffffffffffffffffffffffffffffff16815250506003819080600181540180825580915050906001820390600052602060002090600302016000909192909190915060008201518160000190805190602001906116f092919061249d565b506020820151816001015560408201518160020160006101000a81548173ffffffffffffffffffffffffffffffffffffffff021916908373ffffffffffffffffffffffffffffffffffffffff160217905550505050806004826000015160405161175a9190612bfd565b9081526020016040518091039020600082015181600001908051906020019061178492919061249d565b506020820151816001015560408201518160020160006101000a81548173ffffffffffffffffffffffffffffffffffffffff021916908373ffffffffffffffffffffffffffffffffffffffff1602179055509050506007600582600001516040516117ef9190612bfd565b90815260200160405180910390206000820160009054906101000a900460ff168160000160006101000a81548160ff0219169083600481111561182e57fe5b02179055506001820181600101908054600181600116156101000203166002900461185a929190612416565b5060028201816002019080546001816001161561010002031660029004611882929190612416565b50600382018160030190805460018160011615610100020316600290046118aa929190612416565b506004820160009054906101000a900473ffffffffffffffffffffffffffffffffffffffff168160040160006101000a81548173ffffffffffffffffffffffffffffffffffffffff021916908373ffffffffffffffffffffffffffffffffffffffff16021790555060058201548160050155905050505050565b61192c6123bf565b600260008373ffffffffffffffffffffffffffffffffffffffff1673ffffffffffffffffffffffffffffffffffffffff1681526020019081526020016000206040518060c00160405290816000820160009054906101000a900460ff16600481111561199457fe5b600481111561199f57fe5b8152602001600182018054600181600116156101000203166002900480601f016020809104026020016040519081016040528092919081815260200182805460018160011615610100020316600290048015611a3c5780601f10611a1157610100808354040283529160200191611a3c565b820191906000526020600020905b815481529060010190602001808311611a1f57829003601f168201915b50505050508152602001600282018054600181600116156101000203166002900480601f016020809104026020016040519081016040528092919081815260200182805460018160011615610100020316600290048015611ade5780601f10611ab357610100808354040283529160200191611ade565b820191906000526020600020905b815481529060010190602001808311611ac157829003601f168201915b50505050508152602001600382018054600181600116156101000203166002900480601f016020809104026020016040519081016040528092919081815260200182805460018160011615610100020316600290048015611b805780601f10611b5557610100808354040283529160200191611b80565b820191906000526020600020905b815481529060010190602001808311611b6357829003601f168201915b505050505081526020016004820160009054906101000a900473ffffffffffffffffffffffffffffffffffffffff1673ffffffffffffffffffffffffffffffffffffffff1673ffffffffffffffffffffffffffffffffffffffff1681526020016005820154815250509050919050565b611bf86123bf565b600582604051611c089190612c14565b90815260200160405180910390206040518060c00160405290816000820160009054906101000a900460ff166004811115611c3f57fe5b6004811115611c4a57fe5b8152602001600182018054600181600116156101000203166002900480601f016020809104026020016040519081016040528092919081815260200182805460018160011615610100020316600290048015611ce75780601f10611cbc57610100808354040283529160200191611ce7565b820191906000526020600020905b815481529060010190602001808311611cca57829003601f168201915b50505050508152602001600282018054600181600116156101000203166002900480601f016020809104026020016040519081016040528092919081815260200182805460018160011615610100020316600290048015611d895780601f10611d5e57610100808354040283529160200191611d89565b820191906000526020600020905b815481529060010190602001808311611d6c57829003601f168201915b50505050508152602001600382018054600181600116156101000203166002900480601f016020809104026020016040519081016040528092919081815260200182805460018160011615610100020316600290048015611e2b5780601f10611e0057610100808354040283529160200191611e2b565b820191906000526020600020905b815481529060010190602001808311611e0e57829003601f168201915b505050505081526020016004820160009054906101000a900473ffffffffffffffffffffffffffffffffffffffff1673ffffffffffffffffffffffffffffffffffffffff1673ffffffffffffffffffffffffffffffffffffffff1681526020016005820154815250509050919050565b600660009054906101000a900473ffffffffffffffffffffffffffffffffffffffff1673ffffffffffffffffffffffffffffffffffffffff163373ffffffffffffffffffffffffffffffffffffffff1614611f2b576040517f08c379a0000000000000000000000000000000000000000000000000000000008152600401611f2290612d01565b60405180910390fd5b6000600182604051611f3d9190612c14565b9081526020016040518091039020905060008160000160006101000a81548160ff02191690836004811115611f6e57fe5b0217905550806000826005015481548110611f8557fe5b90600052602060002090600602016000820160009054906101000a900460ff168160000160006101000a81548160ff02191690836004811115611fc457fe5b021790555060018201816001019080546001816001161561010002031660029004611ff0929190612416565b5060028201816002019080546001816001161561010002031660029004612018929190612416565b5060038201816003019080546001816001161561010002031660029004612040929190612416565b506004820160009054906101000a900473ffffffffffffffffffffffffffffffffffffffff168160040160006101000a81548173ffffffffffffffffffffffffffffffffffffffff021916908373ffffffffffffffffffffffffffffffffffffffff160217905550600582015481600501559050506001826040516120c59190612c14565b9081526020016040518091039020600d60008573ffffffffffffffffffffffffffffffffffffffff1673ffffffffffffffffffffffffffffffffffffffff1681526020019081526020016000206000820160009054906101000a900460ff168160000160006101000a81548160ff0219169083600481111561214357fe5b02179055506001820181600101908054600181600116156101000203166002900461216f929190612416565b5060028201816002019080546001816001161561010002031660029004612197929190612416565b50600382018160030190805460018160011615610100020316600290046121bf929190612416565b506004820160009054906101000a900473ffffffffffffffffffffffffffffffffffffffff168160040160006101000a81548173ffffffffffffffffffffffffffffffffffffffff021916908373ffffffffffffffffffffffffffffffffffffffff1602179055506005820154816005015590505080600260008360040160009054906101000a900473ffffffffffffffffffffffffffffffffffffffff1673ffffffffffffffffffffffffffffffffffffffff1673ffffffffffffffffffffffffffffffffffffffff1681526020019081526020016000206000820160009054906101000a900460ff168160000160006101000a81548160ff021916908360048111156122c957fe5b0217905550600182018160010190805460018160011615610100020316600290046122f5929190612416565b506002820181600201908054600181600116156101000203166002900461231d929190612416565b5060038201816003019080546001816001161561010002031660029004612345929190612416565b506004820160009054906101000a900473ffffffffffffffffffffffffffffffffffffffff168160040160006101000a81548173ffffffffffffffffffffffffffffffffffffffff021916908373ffffffffffffffffffffffffffffffffffffffff16021790555060058201548160050155905050505050565b6040518060c00160405280600060048111156123d757fe5b8152602001606081526020016060815260200160608152602001600073ffffffffffffffffffffffffffffffffffffffff168152602001600081525090565b828054600181600116156101000203166002900490600052602060002090601f016020900481019282601f1061244f578054855561248c565b8280016001018555821561248c57600052602060002091601f016020900482015b8281111561248b578254825591600101919060010190612470565b5b5090506124999190612557565b5090565b828054600181600116156101000203166002900490600052602060002090601f016020900481019282601f106124de57805160ff191683800117855561250c565b8280016001018555821561250c579182015b8281111561250b5782518255916020019190600101906124f0565b5b5090506125199190612557565b5090565b60405180606001604052806060815260200160008019168152602001600073ffffffffffffffffffffffffffffffffffffffff1681525090565b61257991905b8082111561257557600081600090555060010161255d565b5090565b90565b60008135905061258b81612eca565b92915050565b6000813590506125a081612ee1565b92915050565b600082601f8301126125b757600080fd5b81356125ca6125c582612d90565b612d63565b915080825260208301602083018583830111156125e657600080fd5b6125f1838284612e6a565b50505092915050565b60008135905061260981612ef8565b92915050565b60006020828403121561262157600080fd5b600061262f8482850161257c565b91505092915050565b6000806040838503121561264b57600080fd5b60006126598582860161257c565b925050602083013567ffffffffffffffff81111561267657600080fd5b612682858286016125a6565b9150509250929050565b60006020828403121561269e57600080fd5b600082013567ffffffffffffffff8111156126b857600080fd5b6126c4848285016125a6565b91505092915050565b600080604083850312156126e057600080fd5b600083013567ffffffffffffffff8111156126fa57600080fd5b612706858286016125a6565b925050602061271785828601612591565b9150509250929050565b60008060006060848603121561273657600080fd5b600084013567ffffffffffffffff81111561275057600080fd5b61275c868287016125a6565b935050602084013567ffffffffffffffff81111561277957600080fd5b612785868287016125a6565b92505060406127968682870161257c565b9150509250925092565b6000806000606084860312156127b557600080fd5b600084013567ffffffffffffffff8111156127cf57600080fd5b6127db868287016125a6565b935050602084013567ffffffffffffffff8111156127f857600080fd5b612804868287016125a6565b925050604084013567ffffffffffffffff81111561282157600080fd5b61282d868287016125a6565b9150509250925092565b60006020828403121561284957600080fd5b6000612857848285016125fa565b91505092915050565b61286981612dff565b82525050565b61287881612dff565b82525050565b61288781612e58565b82525050565b61289681612e58565b82525050565b60006128a782612dc7565b6128b18185612df4565b93506128c1818560208601612e79565b80840191505092915050565b60006128d882612dbc565b6128e28185612dd2565b93506128f2818560208601612e79565b6128fb81612eac565b840191505092915050565b600061291182612dbc565b61291b8185612de3565b935061292b818560208601612e79565b61293481612eac565b840191505092915050565b600061294a82612dbc565b6129548185612df4565b9350612964818560208601612e79565b80840191505092915050565b600061297d602d83612de3565b91507f4f6e6c792070726f64637574206f776e65722063616e20617574686f72697a6560008301527f204469737472696275746f722e000000000000000000000000000000000000006020830152604082019050919050565b60006129e3602883612de3565b91507f4f6e6c79206469737472696275746f722063616e20617574686f72697a65207260008301527f657461696c65722e0000000000000000000000000000000000000000000000006020830152604082019050919050565b6000612a49601983612de3565b91507f4f6e6c79204f454d2063616e2063726561746520746167732e000000000000006000830152602082019050919050565b6000612a89602583612de3565b91507f4f6e6c792070726f64637574206f776e65722063616e20617574686f72697a6560008301527f204f454d2e0000000000000000000000000000000000000000000000000000006020830152604082019050919050565b6000612aef602a83612de3565b91507f446f65736e2774206d65657420746865206f776e657273686970207472616e7360008301527f6665722072756c65732e000000000000000000000000000000000000000000006020830152604082019050919050565b600060c083016000830151612b60600086018261287e565b5060208301518482036020860152612b7882826128cd565b91505060408301518482036040860152612b9282826128cd565b91505060608301518482036060860152612bac82826128cd565b9150506080830151612bc16080860182612860565b5060a0830151612bd460a0860182612bdf565b508091505092915050565b612be881612e4e565b82525050565b612bf781612e4e565b82525050565b6000612c09828461293f565b915081905092915050565b6000612c20828461289c565b915081905092915050565b600060c082019050612c40600083018961288d565b8181036020830152612c528188612906565b90508181036040830152612c668187612906565b90508181036060830152612c7a8186612906565b9050612c89608083018561286f565b612c9660a0830184612bee565b979650505050505050565b60006020820190508181036000830152612cba81612970565b9050919050565b60006020820190508181036000830152612cda816129d6565b9050919050565b60006020820190508181036000830152612cfa81612a3c565b9050919050565b60006020820190508181036000830152612d1a81612a7c565b9050919050565b60006020820190508181036000830152612d3a81612ae2565b9050919050565b60006020820190508181036000830152612d5b8184612b48565b905092915050565b6000604051905081810181811067ffffffffffffffff82111715612d8657600080fd5b8060405250919050565b600067ffffffffffffffff821115612da757600080fd5b601f19601f8301169050602081019050919050565b600081519050919050565b600081519050919050565b600082825260208201905092915050565b600082825260208201905092915050565b600081905092915050565b6000612e0a82612e2e565b9050919050565b6000819050919050565b6000819050612e2982612ebd565b919050565b600073ffffffffffffffffffffffffffffffffffffffff82169050919050565b6000819050919050565b6000612e6382612e1b565b9050919050565b82818337600083830152505050565b60005b83811015612e97578082015181840152602081019050612e7c565b83811115612ea6576000848401525b50505050565b6000601f19601f8301169050919050565b60058110612ec757fe5b50565b612ed381612dff565b8114612ede57600080fd5b50565b612eea81612e11565b8114612ef557600080fd5b50565b612f0181612e4e565b8114612f0c57600080fd5b5056fea265627a7a72305820040befe81c697973bca3e4b6b6b5d1321b07410c45a94ccf849ac34410fff6556c6578706572696d656e74616cf50037",
  "source": "\npragma solidity >=0.4.21 <0.6.0;\npragma experimental ABIEncoderV2;\n\ncontract ProductValidator {\n\n    enum EntityType{ OEM, ProductOwner, Distributor, Retailer, Customer }\n    //\n    // Entity holds the physical validation of the owner\n    // name: Name of the owner as per the ID provided.\n    // ID: Identifier for the owner\n    // IDType: Provider who can validate the ID provided.\n    //\n    struct Entity {\n        EntityType entityType;\n        string name;\n        string IDEntity;\n        string IDType;\n        address owner;\n        uint index;\n    }\n\n    Entity[] public entities;\n\n    // Entity ID to Entity mapping...\n    mapping(string=>Entity) private entityMap;\n\n    // Entity address to entity map\n    mapping(address=>Entity) private addressEntityMap;\n\n    //\n    // Product holds the information about the product.\n    // ID: RFID or BarCode tag for the product.\n    // origniHash: The origin hash to track the product origin and other attributes.\n    //\n\n    struct Product {\n        string IDProduct;\n        bytes32 originHash;\n        address OEM;\n    }\n    Product[] private bags;\n    // Product ID to Product mapping...\n    mapping (string=>Product) bagMapping;\n\n    // Product ID to owning entity mapping...\n    mapping (string=>Entity) productEntityMap;\n\n    address private productOwner;\n    Entity private productOwnerEntity;\n\n    mapping(address=>Entity) OEMMapping;\n    address[] private OEMList;\n\n    function createEntity(string memory _name, string memory _ID, string memory _IDType) public {\n        Entity memory entity;\n        entity.IDEntity = _ID;\n        entity.name = _name;\n        entity.IDType = _IDType;\n        entity.entityType = EntityType.Customer;\n        entity.owner = msg.sender;\n        entity.index = entities.length;\n        entities.push(entity);\n        entityMap[_ID] = entity;\n        addressEntityMap[entity.owner] = entity;\n    }\n\n    // Owner of the product creates should create the contract.\n    constructor (string memory _productOwnerName) public {\n        productOwner = msg.sender;\n        Entity memory entity;\n        entity.IDEntity = \"1\";\n        entity.name = _productOwnerName;\n        entity.IDType = \"\";\n        entity.entityType = EntityType.ProductOwner;\n        entity.owner = msg.sender;\n        entity.index = entities.length;\n        entities.push(entity);\n        entityMap[entity.IDEntity] = entity;\n        addressEntityMap[entity.owner] = entity;\n        productOwnerEntity = entities[0];\n    }\n\n    function authorizeOEM(address _oem, string memory _oemEntityID) public {\n        require(msg.sender == productOwner, \"Only prodcut owner can authorize OEM.\");\n        Entity storage entity = entityMap[_oemEntityID];\n        entity.entityType = EntityType.OEM;\n        entities[entity.index] = entity;\n        OEMMapping[_oem] = entityMap[_oemEntityID];\n        addressEntityMap[entity.owner] = entity;\n    }\n\n    function authorizeDistributor(string memory _distID) public {\n        require(msg.sender == productOwner, \"Only prodcut owner can authorize Distributor.\");\n        entityMap[_distID].entityType = EntityType.Distributor;\n        addressEntityMap[entityMap[_distID].owner] = entityMap[_distID];\n    }\n\n    function authorizeRetailer(string memory _retailID) public {\n        require(addressEntityMap[msg.sender].entityType == EntityType.Distributor,\n            \"Only distributor can authorize retailer.\");\n        entityMap[_retailID].entityType = EntityType.Retailer;\n        addressEntityMap[entityMap[_retailID].owner] = entityMap[_retailID];\n    }\n\n    function createTag(string memory _IDProduct, bytes32 _originHash) public\n    {\n        require(OEMMapping[msg.sender].entityType == EntityType.OEM, \"Only OEM can create tags.\");\n        Product memory bag;\n        bag.IDProduct = _IDProduct;\n        bag.originHash = _originHash;\n        bag.OEM = msg.sender;\n        bags.push(bag);\n        bagMapping[bag.IDProduct] = bag;\n        productEntityMap[bag.IDProduct] = productOwnerEntity;\n    }\n\n    function getOwnershipInfo(string memory _IDProduct) public view returns (Entity memory) {\n        return productEntityMap[_IDProduct];\n    }\n\n    function getEntity(string memory _IDEntity) public view returns (Entity memory) {\n        return entityMap[_IDEntity];\n    }\n\n    function getEntityByAddress(address _add) public view returns (Entity memory) {\n        return addressEntityMap[_add];\n    }\n\n    function transferOwnership(string memory _IDProduct, string memory _IDNewEntity, address _newOwner) public {\n        require(productEntityMap[_IDProduct].owner == msg.sender && (\n            // Product Owner can transfer to distributor.\n\n        (productEntityMap[_IDProduct].entityType == EntityType.ProductOwner && entityMap[_IDNewEntity].entityType == EntityType.Distributor) ||\n        (productEntityMap[_IDProduct].entityType == EntityType.Distributor && entityMap[_IDNewEntity].entityType == EntityType.Retailer) ||\n        (productEntityMap[_IDProduct].entityType == EntityType.Retailer && entityMap[_IDNewEntity].entityType == EntityType.Customer)),\n        \"Doesn't meet the ownership transfer rules.\");\n\n        productEntityMap[_IDProduct].owner = _newOwner;\n        addressEntityMap[_newOwner] = entityMap[_IDNewEntity];\n        productEntityMap[_IDProduct] = entityMap[_IDNewEntity];\n    }\n}",
  "sourcePath": "D:/productValidator/contracts/ProductValidator.sol",
  "compiler": {
    "name": "solc",
    "version": "0.5.8+commit.23d335f2.Emscripten.clang"
  },
  "schemaVersion": "3.0.15",
  "updatedAt": "2019-09-09T06:55:44.193Z",
  "devdoc": {
    "methods": {}
  },
  "userdoc": {
    "methods": {}
  }
}